:100000000C942F010C9460010C9460010C9460011D
:100010000C9460010C9460010C9460010C946001DC
:100020000C9460010C9460010C9460010C946001CC
:100030000C9460010C9460010C9460010C946001BC
:100040000C9460010C9460010C9460010C946001AC
:100050000C9460010C9460010C9460010C941E04DB
:100060000C9460010C9460010C9460010C9460018C
:100070000C9460010C9460010C9460010C9460017C
:100080000C9460010C9460010C9460010C9460016C
:100090000C9460010C9460010C9460010C9460015C
:1000A0000C9460010C9460010C9460010C9460014C
:1000B0000C9460010C9460010C9460010C9460013C
:1000C0000C9460010C9460010C9460010C9460012C
:1000D0000C9460010C9460010C9460010C9460011C
:1000E0000C9460010C94E5010C9411020C94F9013C
:1000F0000C94E2010C94EB010C9415020C94070291
:100100000C9418040C9472020C9403020C94C40115
:100110000C94F5010C94BF010C94D6010C940B02C5
:100120000C9462010C94DA010C94DE010C94D50558
:100130000C94FD010C94EF010C947102000021005D
:10014000240027002A002D003000330001010000A8
:10015000040107010A0100002200250028002B00ED
:100160002E003100340002010000050108010B01DE
:1001700000000A0B02090C0D0E0807030401000021
:10018000000000000000000000000000000000006F
:10019000000000000000000000000000121110002C
:1001A000000000000000000000000000000000004F
:1001B00000000000000000002000230026002900AD
:1001C0002C002F003200000100000301060109018C
:1001D00005050505070508080808020202020A0AC3
:1001E00008080404040401010101010101010303E1
:1001F000030303030303040707070C0C0C0C0C0C8C
:100200000C0C0202020206060606060606060B0B88
:100210000B0B0B0B0B0B01021020200808102040C9
:1002200010204080020102010804020101020408BA
:100230001020408080402010080402018004020148
:100240008040201008040201080402010102040891
:10025000102040800102040810204080D5051124A0
:100260001FBECFEFD1E2DEBFCDBF00E00CBF12E07A
:10027000A0E0B2E0ECEAFEE000E00BBF02C00790B5
:100280000D92AE31B107D9F722E0AEE1B2E001C084
:100290001D92AF33B207E1F711E0CFE2D1E000E009
:1002A00006C021970109802FFE010E944C07CE3223
:1002B000D10780E00807A9F70E94AD040C94540709
:1002C0000C940000AF92BF92CF92DF92EF92FF9218
:1002D0000F931F93CF93DF936C017B018B01040F6E
:1002E000151FEB015E01AE18BF08C017D10759F00A
:1002F0006991D601ED91FC910190F081E02DC6014C
:100300001995892B79F7C501DF91CF911F910F9135
:10031000FF90EF90DF90CF90BF90AF900895282F7F
:1003200030E0F901E059FE4F9491F901EA5EFD4F8A
:10033000449120533E4FF9012491222309F435C002
:10034000992311F191509231F8F4E92FF0E08827C8
:10035000E355FE4F8F4F0C944C07DE01E201BF01C5
:10036000D601DA01C401E501EB01EF01F501F90164
:10037000FD0103020702C4010B0211021502809164
:1003800080008F7780938000E22FF0E0EE0FFF1F58
:10039000EA5AFE4FA591B4918FB7F894EC91611190
:1003A00048C040954E234C938FBF089580918000A4
:1003B0008F7DE8CF80918000877FE4CF84B58F77F1
:1003C00084BDE2CF84B58F7DFBCF8091B0008F7765
:1003D0008093B000D9CF8091B0008F7DF9CF80910C
:1003E00090008F7780939000CFCF809190008F7D89
:1003F000F9CF80919000877FF5CF8091A0008F7713
:100400008093A000C1CF8091A0008F7DF9CF809113
:10041000A000877FF5CF809120018F778093200106
:10042000B3CF809120018F7DF9CF80912001877F0C
:10043000F5CF4E2BB8CFCF93DF9390E0FC01EA5E6F
:10044000FD4F249180539E4FFC0184918823D1F06D
:1004500090E0880F991FFC01E45CFE4FA591B491D8
:10046000FC01EA5AFE4FC591D49161110EC09FB7AD
:10047000F8948C91E22FE0958E238C932881E223CF
:10048000E8839FBFDF91CF9108958FB7F894EC91E7
:10049000E22BEC938FBFF6CF3FB7F8948091230205
:1004A00090912402A0912502B091260226B5A89B26
:1004B00005C02F3F19F00196A11DB11D3FBFBA2FF6
:1004C000A92F982F8827BC01CD01620F711D811DB6
:1004D000911D42E0660F771F881F991F4A95D1F73B
:1004E0000895089590E080E008958F929F92AF92D2
:1004F000BF920F931F93CF93DF93CDB7DEB7A19732
:100500000FB6F894DEBF0FBECDBF19A2423008F47B
:100510004AE08E010F5D1F4F842E912CB12CA12C2F
:10052000A50194010E942A07E62FB901CA01EA3009
:1005300044F5E05DD801EE938D01232B242B252B70
:1005400079F790E080E0109769F0FD0101900020BC
:10055000E9F73197AF014A1B5B0BBD0187E292E0DF
:100560000E946201A1960FB6F894DEBF0FBECDBF08
:10057000DF91CF911F910F91BF90AF909F908F907F
:100580000895E95CD7CFFC0101900020E9F731978D
:10059000AF01481B590BBC0187E292E00C94620149
:1005A000CF93DF93EC0160E08E810E948F0161E0C8
:1005B0008E810E948F0160E08E810E948F018BE806
:1005C00091E00197F1F7DF91CF910895CF92DF92FB
:1005D000EF92FF920F931F93CF93DF936C017C01F7
:1005E00087E0E80EF11CD0E0C0E0062F10E0B80173
:1005F0000C2E02C0759567950A94E2F76170F701B9
:1006000081917F010E948F012196C430D10579F735
:10061000C601DF91CF911F910F91FF90EF90DF9076
:10062000CF900C94D002CF92DF92EF92FF920F9373
:100630001F93CF93DF93EC01F62E642F8C810E94E1
:100640008F018D818F3F19F060E00E948F010F2D87
:1006500010E08F8584FF25C06E0187E0C80ED11C95
:10066000F12CE12CB8010E2C02C0759567950A9407
:10067000E2F76170F60181916F010E948F01FFEF37
:10068000EF1AFF0A88E0E816F10461F7CE01DF9166
:10069000CF911F910F91FF90EF90DF90CF900C942E
:1006A000D002B80184E0759567958A95E1F7CE018F
:1006B0000E94E6026F2DCE01DF91CF911F910F9125
:1006C000FF90EF90DF90CF900C94E60240E0682F0F
:1006D00087E292E00C941303CF93DF9360933A0286
:1006E00010923B0290E490933C0280933D02805C28
:1006F00080933E0261E080912B020E941B02809158
:100700002C028F3F19F061E00E941B0261E0809192
:100710002D020E941B02C7E2D2E09E012752324006
:100720008091360284FD0BC084E090E0219628176A
:10073000390744F461E08E810E941B02EECF88E00D
:1007400090E0F4CF8BE39DE00197F1F760E08091BA
:100750002B020E948F0160E080912D020E948F0188
:1007600080912C028F3F19F060E00E948F018091F0
:10077000360284FD39C063E087E292E00E94E6021F
:10078000CBE4D6E4CE010197F1F763E087E292E093
:100790000E94E6022197F1F763E087E292E00E946F
:1007A000E60283E592E00197F1F762E087E292E0EA
:1007B0000E94E6028091360280620E94660384E015
:1007C000809337028CE00E94660381E00E946603FA
:1007D0008BE39FE10197F1F782E08093380286E096
:1007E000DF91CF910C94660380620E9466038BE4D4
:1007F00096E40197F1F78091360280620E946603C9
:1008000083E592E00197F1F78091360280620E94C1
:100810006603D0CFE1E090913A029111E0E0E195DA
:10082000F0E0E95DFD4F9489890F80680C946603C0
:1008300041E00E94130381E090E008951F920F921F
:100840000FB60F9211242F933F938F939F93AF93E3
:10085000BF9380911F0290912002A0912102B0913C
:10086000220230911E0223E0230F2D3758F5019606
:10087000A11DB11D20931E0280931F0290932002A0
:10088000A0932102B093220280912302909124022E
:10089000A0912502B09126020196A11DB11D809361
:1008A000230290932402A0932502B0932602BF91C5
:1008B000AF919F918F913F912F910F900FBE0F900D
:1008C0001F90189526E8230F0296A11DB11DD2CFC7
:1008D000CF92DF92EF92FF920F931F93E82FF92FA1
:1008E00005C0015011092109310961F19081962358
:1008F0009417B9F305C0015011092109310911F10B
:10090000908196239413F7CFC12CD12CE12CF12C9C
:100910000AC08FEFC81AD80AE80AF80A0C151D0594
:100920002E053F0579F080818623841791F36C2D85
:100930007D2D8E2D9F2D1F910F91FF90EF90DF90B9
:10094000CF90089560E070E080E090E01F910F91FB
:10095000FF90EF90DF90CF900895789484B58260F7
:1009600084BD84B5816084BD85B5826085BD85B553
:10097000816085BD80916E00816080936E001092D1
:10098000810080918100826080938100809181004C
:1009900081608093810080918000816080938000DD
:1009A0008091B10084608093B1008091B00081603B
:1009B0008093B0008091910082608093910080913B
:1009C000910081608093910080919000816080937C
:1009D00090008091A10082608093A1008091A1008D
:1009E00081608093A1008091A00081608093A0002D
:1009F0008091210182608093210180912101816099
:100A00008093210180912001816080932001809159
:100A10007A00846080937A0080917A00826080936B
:100A20007A0080917A00816080937A0080917A00C8
:100A3000806880937A001092C10060E08DE00E948F
:100A40006C0381E00E9466038BE39FE10197F1F75D
:100A500080E00E940A048CE092E00E94C3028DE0D4
:100A60000E940A0486E192E00E94C30261E088E0ED
:100A70000E941B0260E087E00E941B0243E0E42E1C
:100A8000F12C5FE0C52ED12C6DE1262E62E0362ED2
:100A900060E088E00E948F01C7010197F1F761E0F3
:100AA00088E00E948F01C6010197F1F760E088E0BD
:100AB0000E948F01F1016491E7EDF1E08491E82F4C
:100AC000F0E0EE0FFF1FEA54FE4F8591949100E491
:100AD00012E42FE030E0462F0E9468046115710592
:100AE0008105910529F06F5F7F4F8F4F9F4F9F705A
:100AF00096958795779567950E949C0627EC3BE431
:100B00004BEE51E40E94F4050E9466062B01EB01B6
:100B10008AE00E940A04B201550C880B990B4AE046
:100B20000E947502CA30D1059CF58BE00E940A0430
:100B30008AE192E00E94C3020E944C022B013C0118
:100B400088EC882E912CA12CB12C0E944C026419A7
:100B5000750986099709683E734081059105A8F3D8
:100B6000F1E08F1A9108A108B10828EE420E23E0A7
:100B7000521E611C711C81149104A104B10429F757
:100B800080E090E0892B09F483CF0E94000080CFA1
:100B9000C436D1058CF68CE00E940A0441E060E284
:100BA00087E292E00E941303C7CFE7E2F2E01382EC
:100BB000128284E092E0918380838DE084838FEFC2
:100BC00085838CE0868387E0878386E0808785E065
:100BD000818784E082871386148615861686178699
:100BE00061E080E10C946C030E9408060C94F0060E
:100BF0000E94E90658F00E94E20640F029F45F3FA7
:100C000029F00C94D90651110C9424070C94DF069A
:100C10000E94010768F39923B1F3552391F3951BC3
:100C2000550BBB27AA2762177307840738F09F5F0D
:100C30005F4F220F331F441FAA1FA9F335D00E2E7A
:100C40003AF0E0E832D091505040E695001CCAF7E7
:100C50002BD0FE2F29D0660F771F881FBB1F2617AA
:100C600037074807AB07B0E809F0BB0B802DBF0181
:100C7000FF2793585F4F3AF09E3F510578F00C9450
:100C8000D9060C9424075F3FE4F3983ED4F386958D
:100C900077956795B795F7959F5FC9F7880F911D71
:100CA0009695879597F90895E1E0660F771F881F5D
:100CB000BB1F621773078407BA0720F0621B730B10
:100CC000840BBA0BEE1F88F7E09508950E946D061D
:100CD0006894B1110C94240708950E94090788F0C4
:100CE0009F5798F0B92F9927B751B0F0E1F0660FF0
:100CF000771F881F991F1AF0BA95C9F714C0B13031
:100D000091F00E942307B1E008950C942307672F08
:100D1000782F8827B85F39F0B93FCCF3869577955F
:100D20006795B395D9F73EF4909580957095619548
:100D30007F4F8F4F9F4F0895E89409C097FB3EF473
:100D400090958095709561957F4F8F4F9F4F992318
:100D5000A9F0F92F96E9BB279395F6958795779596
:100D60006795B795F111F8CFFAF4BB0F11F460FF56
:100D70001BC06F5F7F4F8F4F9F4F16C0882311F0AE
:100D800096E911C0772321F09EE8872F762F05C0C2
:100D9000662371F096E8862F70E060E02AF09A955D
:100DA000660F771F881FDAF7880F9695879597F952
:100DB000089597F99F6780E870E060E008959FEFDD
:100DC00080EC089500240A941616170618060906E2
:100DD000089500240A9412161306140605060895B1
:100DE000092E0394000C11F4882352F0BB0F40F439
:100DF000BF2B11F460FF04C06F5F7F4F8F4F9F4F79
:100E0000089557FD9058440F551F59F05F3F71F0FA
:100E10004795880F97FB991F61F09F3F79F0879561
:100E20000895121613061406551FF2CF4695F1DFEA
:100E300008C0161617061806991FF1CF869571057A
:100E4000610508940895E894BB2766277727CB01AE
:100E500097F90895A1E21A2EAA1BBB1BFD010DC034
:100E6000AA1FBB1FEE1FFF1FA217B307E407F5075A
:100E700020F0A21BB30BE40BF50B661F771F881F36
:100E8000991F1A9469F760957095809590959B01CC
:100E9000AC01BD01CF010895EE0FFF1F881F8BBF6E
:0C0EA0000790F691E02D1994F894FFCF14
:100EAC00000000001804620172027102446973743C
:0E0EBC00616E63653A0020636D002020000027
:00000001FF
