:020000040000FA
:100000000C9462000C948A000C948A000C948A0070
:100010000C948A000C948A000C948A000C948A0038
:100020000C948A000C948A000C948A000C948A0028
:100030000C948A000C948A000C948A000C948A0018
:100040000C94E2020C948A000C948A000C948A00AE
:100050000C948A000C948A000C948A000C948A00F8
:100060000C948A000C948A00000000080002010031
:100070000003040700000000000000000000000072
:1000800023002600290000000000250028002B0086
:1000900000000000240027002A00040404040404D3
:1000A0000404020202020202030303030303010227
:1000B00004081020408001020408102001020408F6
:1000C0001020EA0411241FBECFEFD8E0DEBFCDBF61
:1000D00011E0A0E0B1E0E8EFFDE002C005900D9274
:1000E000A632B107D9F721E0A6E2B1E001C01D9226
:1000F000A734B207E1F710E0C2E6D0E004C02197D0
:10010000FE010E94F406C136D107C9F70E947103AF
:100110000C94FA060C94000090E0FC01E255FF4FAD
:10012000249186569F4FFC018491882399F090E09A
:10013000880F991FFC01E057FF4FA591B491FC0176
:10014000EA57FF4F859194918FB7F894EC91E22B89
:10015000EC938FBF0895AF92BF92CF92DF92EF9250
:10016000FF920F931F93CF93DF936C017B018B0161
:10017000040F151FEB015E01AE18BF08C017D107B1
:1001800059F06991D601ED91FC910190F081E02D3B
:10019000C6010995892B79F7C501DF91CF911F9190
:1001A0000F91FF90EF90DF90CF90BF90AF900895A8
:1001B00090E0FC01E859FF4F2491FC01E255FF4F0C
:1001C0003491FC01E656FF4FE491EE23C9F022235F
:1001D00039F0233001F1A8F4213019F1223029F14E
:1001E000F0E0EE0FFF1FEA57FF4FA591B4918FB7D4
:1001F000F894EC91611126C030953E233C938FBF5B
:1002000008952730A9F02830C9F0243049F78091AB
:1002100080008F7D03C0809180008F778093800065
:10022000DFCF84B58F7784BDDBCF84B58F7DFBCFE7
:100230008091B0008F778093B000D2CF8091B000D2
:100240008F7DF9CF3E2BDACF3FB7F89480912B0109
:1002500090912C01A0912D01B0912E0126B5A89B63
:1002600005C02F3F19F00196A11DB11D3FBFBA2F48
:10027000A92F982F8827BC01CD01620F711D811D08
:10028000911D42E0660F771F881F991F4A95D1F78D
:100290000895089590E080E00895FC010190002009
:1002A000E9F73197AF01481B590BBC018FE291E090
:1002B0000C94AB008F929F92AF92BF920F931F93BB
:1002C000CF93DF93CDB7DEB7A1970FB6F894DEBF1B
:1002D0000FBECDBF19A2423008F44AE08E010F5D77
:1002E0001F4F842E912CB12CA12CA50194010E94AA
:1002F000D206E62FB901CA01EA30F4F4E05DD80174
:10030000EE938D01232B242B252B79F790E080E0B1
:10031000109719F0CD010E944D01A1960FB6F894E7
:10032000DEBF0FBECDBFDF91CF911F910F91BF9068
:10033000AF909F908F900895E95CE1CFCF93DF93CA
:10034000EC0160E08E810E94D80061E08E810E9405
:10035000D80060E08E810E94D8008BE891E0019780
:10036000F1F7DF91CF910895CF92DF92EF92FF9254
:100370000F931F93CF93DF936C017C0187E0E80E0E
:10038000F11CD0E0C0E0062F10E0B8010C2E02C036
:10039000759567950A94E2F76170F70181917F0185
:1003A0000E94D8002196C430D10579F7C601DF91AB
:1003B000CF911F910F91FF90EF90DF90CF900C9411
:1003C0009E01CF92DF92EF92FF920F931F93CF93F4
:1003D000DF93EC01F62E642F8C810E94D8008D8172
:1003E0008F3F19F060E00E94D8000F2D10E08F853C
:1003F00084FF25C06E0187E0C80ED11CF12CE12CD2
:10040000B8010E2C02C0759567950A94E2F76170E9
:10041000F60181916F010E94D800FFEFEF1AFF0AE9
:1004200088E0E816F10461F7CE01DF91CF911F91CA
:100430000F91FF90EF90DF90CF900C949E01B80148
:1004400084E0759567958A95E1F7CE010E94B40125
:100450006F2DCE01DF91CF911F910F91FF90EF9003
:10046000DF90CF900C94B40140E0682F8FE291E0D0
:100470000C94E101CF93DF93823029F490913E01F7
:10048000986090933E01809342011092430180E472
:100490008093440180E18093450180E5809346018B
:1004A000809133010E948C00809134018F3F11F0C4
:1004B0000E948C00809135010E948C00CFE2D1E037
:1004C0009E012F52314080913E0184FD0AC084E09C
:1004D00090E02196281739073CF48E810E948C0009
:1004E000EFCF88E090E0F5CF8BE39DE00197F1F747
:1004F00060E0809133010E94D80060E08091350176
:100500000E94D800809134018F3F19F060E00E9472
:10051000D80080913E0184FD39C063E08FE291E014
:100520000E94B401CBE4D6E4CE010197F1F763E079
:100530008FE291E00E94B4012197F1F763E08FE22E
:1005400091E00E94B40183E592E00197F1F762E047
:100550008FE291E00E94B40180913E0180620E948E
:10056000340284E080933F018CE00E94340281E0F9
:100570000E9434028BE39FE10197F1F782E08093C0
:10058000400186E0DF91CF910C94340280620E949A
:1005900034028BE496E40197F1F780913E0180628A
:1005A0000E94340283E592E00197F1F780913E01C9
:1005B00080620E943402D0CF41E00E94E10181E0DC
:1005C00090E008951F920F920FB60F9211242F936F
:1005D0003F938F939F93AF93BF9380912701909107
:1005E0002801A0912901B0912A013091260123E030
:1005F000230F2D3758F50196A11DB11D209326011B
:100600008093270190932801A0932901B0932A0198
:1006100080912B0190912C01A0912D01B0912E0180
:100620000196A11DB11D80932B0190932C01A093E5
:100630002D01B0932E01BF91AF919F918F913F916A
:100640002F910F900FBE0F901F90189526E8230F43
:100650000296A11DB11DD2CFCF92DF92EF92FF92F1
:100660000F931F93E82FF92F05C00150110921099D
:10067000310961F1908196239417B9F305C00150B7
:1006800011092109310911F1908196239413F7CFB3
:10069000C12CD12CE12CF12C0AC08FEFC81AD80A3A
:1006A000E80AF80A0C151D052E053F0579F0808132
:1006B0008623841791F36C2D7D2D8E2D9F2D1F91F8
:1006C0000F91FF90EF90DF90CF90089560E070E081
:1006D00080E090E01F910F91FF90EF90DF90CF901E
:1006E0000895789484B5826084BD84B5816084BDAA
:1006F00085B5826085BD85B5816085BD80916E00C0
:10070000816080936E0010928100809181008260F0
:10071000809381008091810081608093810080912D
:1007200080008160809380008091B100846080931C
:10073000B1008091B00081608093B00080917A0018
:10074000846080937A0080917A00826080937A003E
:1007500080917A00816080937A0080917A0080682D
:1007600080937A001092C10083E00E948C0082E0A6
:100770000E948C0082E00E943A0223E0222E312C5B
:10078000C3E2D0E03BE3A32E3FE1B32E40E0842E52
:1007900040E0942E60E083E00E94D800C101019700
:1007A000F1F761E083E00E94D800CE010197F1F7F4
:1007B00061E083E00E94D800E0EBF0E06491ECE9B6
:1007C000F0E08491E82FF0E0EE0FFF1FE458FF4FB8
:1007D0008591949100E513EC20E030E0462F0E94D3
:1007E0002C03611571058105910529F06F5F7F4F1D
:1007F0008F4F9F4F9F700E94A90526E933E44BE07D
:100800005DE30E94600620E030E040E05FE30E948C
:1008100060066B017C01E1E0809142018111E0E022
:10082000E195F0E0E15DFE4F848980680E9434022A
:100830008CE091E00E944D01E0914201E23008F02D
:100840004AC0E150F0E0E15DFE4F848980680E947B
:100850003402A7019601C701B6010E94CD06882384
:10086000E1F186E191E00E944D0182E291E00E9477
:100870004D010E9424012B013C0188EEC82E83E02B
:10088000D82EE12CF12C0E942401641975098609E7
:100890009709683E734081059105A8F3F1E0CF1AEE
:1008A000D108E108F10828EE420E23E0521E611C37
:1008B000711CC114D104E104F10429F781E00E9404
:1008C0003402C5010197F1F78114910409F462CF54
:1008D0000E9400005FCFE1E0B5CF2FEF3FEF4FE781
:1008E0005FE7C701B6010E94CD0681110DC02FEF51
:1008F0003FEF4FE75FE7C701B6010E947505181685
:100900001CF48AE191E0AFCF2FEF3FEF4FE75FE4B8
:10091000C701B6010E945B0618161CF48EE191E037
:10092000A2CF2FEF3FEF4FE75FECC701B6010E9468
:10093000750587FDF3CF2AE037ED43EA5BE3C70196
:10094000B6010E9409052B013C010E947A056B014A
:100950007C010E94A9059B01AC01C301B2010E9468
:1009600008052B013C014AE0C701B6010E945A016B
:1009700041E06EE28FE291E00E94E10120E030E090
:1009800040E251E4C301B2010E9460062B013C0128
:100990000E947A056B01F12CE12C4AE0C701B601F7
:1009A0000E945A01C701B6010E94A9059B01AC0132
:1009B000C301B2010E94080520E030E040E251E4AA
:1009C0000E9460060E947A0590E080E04AE00E9462
:1009D0005A014BCFEFE2F1E01382128284E091E002
:1009E0009183808389E084838FEF858388E0868389
:1009F00087E0878386E0808785E0818784E082873F
:100A00001386148615861686178681E00C943A02A2
:100A10005058BB27AA270E9420050C9421060E944B
:100A2000130638F00E941A0620F039F49F3F19F49B
:100A300026F40C9410060EF4E095E7FB0C940A06DD
:100A4000E92F0E94320658F3BA176207730784072A
:100A5000950720F079F4A6F50C9454060EF4E09571
:100A60000B2EBA2FA02D0B01B90190010C01CA0168
:100A7000A0011124FF27591B99F0593F50F4503E13
:100A800068F11A16F040A22F232F342F4427585F05
:100A9000F3CF469537952795A795F0405395C9F71D
:100AA0007EF41F16BA0B620B730B840BBAF09150D5
:100AB000A1F0FF0FBB1F661F771F881FC2F70EC074
:100AC000BA0F621F731F841F48F487957795679547
:100AD000B795F7959E3F08F0B0CF9395880F08F033
:100AE0009927EE0F9795879508950E94E60508F4DB
:100AF00081E008950E943A0688F09F5798F0B92F38
:100B00009927B751B0F0E1F0660F771F881F991F42
:100B10001AF0BA95C9F714C0B13091F00E9454068A
:100B2000B1E008950C945406672F782F8827B85F9A
:100B300039F0B93FCCF3869577956795B395D9F79A
:100B40003EF490958095709561957F4F8F4F9F4FA4
:100B50000895E89409C097FB3EF4909580957095B0
:100B600061957F4F8F4F9F4F9923A9F0F92F96E9F9
:100B7000BB279395F695879577956795B795F1116E
:100B8000F8CFFAF4BB0F11F460FF1BC06F5F7F4F0B
:100B90008F4F9F4F16C0882311F096E911C077231D
:100BA00021F09EE8872F762F05C0662371F096E826
:100BB000862F70E060E02AF09A95660F771F881FF5
:100BC000DAF7880F9695879597F90895990F000899
:100BD000550FAA0BE0E8FEEF16161706E807F9070F
:100BE000C0F012161306E407F50798F0621B730BAA
:100BF000840B950B39F40A2661F0232B242B252B2B
:100C000021F408950A2609F4A140A6958FEF811DCD
:100C1000811D089597F99F6780E870E060E008956E
:100C20009FEF80EC089500240A9416161706180604
:100C30000906089500240A941216130614060506E0
:100C40000895092E0394000C11F4882352F0BB0F71
:100C500040F4BF2B11F460FF04C06F5F7F4F8F4FD4
:100C60009F4F089557FD9058440F551F59F05F3F0F
:100C700071F04795880F97FB991F61F09F3F79F0BE
:100C800087950895121613061406551FF2CF469540
:100C9000F1DF08C0161617061806991FF1CF8695C2
:100CA0007105610508940895E894BB2766277727A6
:100CB000CB0197F908950E94E60508F48FEF089597
:100CC0000E9473060C9421060E94130638F00E94BD
:100CD0001A0620F0952311F00C940A060C941006C5
:100CE00011240C9455060E94320670F3959FC1F3AF
:100CF000950F50E0551F629FF001729FBB27F00DCA
:100D0000B11D639FAA27F00DB11DAA1F649F66271E
:100D1000B00DA11D661F829F2227B00DA11D621F6D
:100D2000739FB00DA11D621F839FA00D611D221F27
:100D3000749F3327A00D611D231F849F600D211D0B
:100D4000822F762F6A2F11249F5750409AF0F1F08E
:100D500088234AF0EE0FFF1FBB1F661F771F881FF7
:100D600091505040A9F79E3F510580F00C940A061F
:100D70000C9455065F3FE4F3983ED4F3869577953F
:100D80006795B795F795E7959F5FC1F7FE2B880F9D
:100D9000911D9695879597F908950E94E605880B11
:100DA000990B0895A1E21A2EAA1BBB1BFD010DC0D1
:100DB000AA1FBB1FEE1FFF1FA217B307E407F5070B
:100DC00020F0A21BB30BE40BF50B661F771F881FE7
:100DD000991F1A9469F760957095809590959B017D
:100DE000AC01BD01CF010895EE0FFF1F0590F491F6
:100DF000E02D0994F894FFCF00000000DC02AB0066
:100E00004A01490144697374616E63653A006E6119
:0E0E10006E00696E66006F76660020636D00EE
:107E0000112484B714BE81FFF0D085E080938100F7
:107E100082E08093C00088E18093C10086E0809377
:107E2000C20080E18093C4008EE0C9D0259A86E02C
:107E300020E33CEF91E0309385002093840096BBD3
:107E4000B09BFECF1D9AA8958150A9F7CC24DD24C4
:107E500088248394B5E0AB2EA1E19A2EF3E0BF2EE7
:107E6000A2D0813461F49FD0082FAFD0023811F036
:107E7000013811F484E001C083E08DD089C08234E0
:107E800011F484E103C0853419F485E0A6D080C0E4
:107E9000853579F488D0E82EFF2485D0082F10E0AE
:107EA000102F00270E291F29000F111F8ED06801E7
:107EB0006FC0863521F484E090D080E0DECF843638
:107EC00009F040C070D06FD0082F6DD080E0C81688
:107ED00080E7D80618F4F601B7BEE895C0E0D1E017
:107EE00062D089930C17E1F7F0E0CF16F0E7DF06D8
:107EF00018F0F601B7BEE89568D007B600FCFDCFD4
:107F0000A601A0E0B1E02C9130E011968C91119780
:107F100090E0982F8827822B932B1296FA010C0160
:107F200087BEE89511244E5F5F4FF1E0A038BF0790
:107F300051F7F601A7BEE89507B600FCFDCF97BE46
:107F4000E89526C08437B1F42ED02DD0F82E2BD052
:107F50003CD0F601EF2C8F010F5F1F4F84911BD097
:107F6000EA94F801C1F70894C11CD11CFA94CF0C13
:107F7000D11C0EC0853739F428D08EE10CD085E9AC
:107F80000AD08FE07ACF813511F488E018D01DD067
:107F900080E101D065CF982F8091C00085FFFCCF94
:107FA0009093C60008958091C00087FFFCCF809118
:107FB000C00084FD01C0A8958091C6000895E0E648
:107FC000F0E098E1908380830895EDDF803219F02E
:107FD00088E0F5DFFFCF84E1DECF1F93182FE3DFCA
:107FE0001150E9F7F2DF1F91089580E0E8DFEE27F6
:047FF000FF270994CA
:027FFE00040479
:00000001FF
