:100000000C945C000C946E000C946E000C946E00CA
:100010000C946E000C946E000C946E000C946E00A8
:100020000C946E000C946E000C946E000C946E0098
:100030000C946E000C946E000C946E000C946E0088
:100040000C9400010C946E000C946E000C946E00E5
:100050000C946E000C946E000C946E000C946E0068
:100060000C946E000C946E00000000080002010069
:100070000003040700000000000000000000000072
:10008000250028002B0000000000240027002A0083
:10009000040404040404040402020202020203032E
:1000A0000303030301020408102040800102040836
:1000B000102001020408102011241FBECFEFD8E049
:1000C000DEBFCDBF21E0A0E0B1E001C01D92A930AC
:1000D000B207E1F70E944A010C948D020C940000D3
:1000E00090E0FC01EC55FF4F249180579F4FFC019D
:1000F0008491882399F090E0880F991FFC01EA57BA
:10010000FF4FA591B491FC01E458FF4F8591949164
:100110008FB7F894EC91E22BEC938FBF089590E0A9
:10012000FC01E859FF4F2491FC01EC55FF4F34913D
:10013000FC01E057FF4FE491EE23C9F0222339F090
:10014000233001F1A8F4213019F1223029F1F0E037
:10015000EE0FFF1FE458FF4FA591B4918FB7F894AD
:10016000EC91611126C030953E233C938FBF0895DA
:100170002730A9F02830C9F0243049F78091800059
:100180008F7D03C0809180008F7780938000DFCFC8
:1001900084B58F7784BDDBCF84B58F7DFBCF809115
:1001A000B0008F778093B000D2CF8091B0008F7D68
:1001B000F9CF3E2BDACF3FB7F894809105019091AB
:1001C0000601A0910701B091080126B5A89B05C0C2
:1001D0002F3F19F00196A11DB11D3FBFBA2FA92FC6
:1001E000982F8827BC01CD01620F711D811D911DC3
:1001F00042E0660F771F881F991F4A95D1F708952F
:100200001F920F920FB60F9211242F933F938F934B
:100210009F93AF93BF938091010190910201A091B0
:100220000301B09104013091000123E0230F2D3729
:1002300058F50196A11DB11D209300018093010185
:1002400090930201A0930301B093040180910501F2
:1002500090910601A0910701B09108010196A11D9E
:10026000B11D8093050190930601A0930701B093FF
:100270000801BF91AF919F918F913F912F910F9066
:100280000FBE0F901F90189526E8230F0296A11D10
:10029000B11DD2CFCF93DF93CDB7DEB72C970FB67A
:1002A000F894DEBF0FBECDBF789484B5826084BD64
:1002B00084B5816084BD85B5826085BD85B581606A
:1002C00085BD80916E00816080936E0010928100E8
:1002D00080918100826080938100809181008160A3
:1002E0008093810080918000816080938000809164
:1002F000B10084608093B1008091B00081608093F0
:10030000B00080917A00846080937A0080917A00B6
:10031000826080937A0080917A00816080937A0075
:1003200080917A00806880937A001092C1008DE0FD
:100330000E9470008CE00E9470008BE00E947000B0
:100340008AE00E94700089E00E94700088E00E94AC
:10035000700087E00E94700086E00E9470001C869A
:100360001B861A82198289819A8102970CF0CDC06E
:100370008B859C850A970CF0C8C01C821B828B81E0
:100380009C8102970CF0BBC08B859C850A970CF072
:10039000B6C01E821D828D819E8102970CF0A9C07D
:1003A0008B859C850A970CF0A4C018861F828F81CC
:1003B000988502970CF097C08B859C850A970CF066
:1003C00092C010E000E01A86198689859A85029706
:1003D0000CF07EC00A3011050CF07AC0312C212CB3
:1003E00092E0291631040CF06DC00A3011050CF0B2
:1003F00069C0D12CC12C22E0C216D1040CF05EC021
:100400000A3011050CF05AC0F12CE12C82E0E816FC
:10041000F1040CF04FC00A3011050CF04BC069819B
:100420008DE00E948F006B818CE00E948F006D81B7
:100430008BE00E948F006F818AE00E948F006985A7
:1004400089E00E948F00622D88E00E948F006C2D51
:1004500087E00E948F006E2D86E00E948F000E9430
:10046000DB002B013C018CE2882E99249394A12C73
:10047000B12C0E94DB006419750986099709683E52
:10048000734081059105A8F391E0891A9108A108AC
:10049000B10828EE420E23E0521E611C711C81142B
:1004A0009104A104B10429F70F5F1F4F8FEFE81AE1
:1004B000F80AACCF9FEFC91AD90A9DCF2FEF221AA5
:1004C000320A8ECF89859A8501969A8789877DCF52
:1004D0008B859C8501969C878B878F81988501965B
:1004E00098878F8364CF8D819E8101969E838D83B3
:1004F00052CF8B819C8101969C838B8340CF8981D5
:100500009A8101969A8389832ECF80E090E0892B8F
:0E05100009F425CF0E94000022CFF894FFCFFF
:00000001FF
