:020000040000FA
:100000000C9462000C948A000C948A000C948A0070
:100010000C948A000C948A000C948A000C948A0038
:100020000C948A000C948A000C948A000C941D0293
:100030000C948A000C948A000C948A000C948A0018
:100040000C94D3010C948A000C948A000C948A00BE
:100050000C948A000C948A000C948A000C948A00F8
:100060000C948A000C948A000000000024002700F1
:100070002A0000000000250028002B0000000000DE
:1000800023002600290004040404040404040202DA
:100090000202020203030303030301020408102007
:1000A0004080010204081020010204081020000012
:1000B0000008000201000003040700000000000027
:1000C0000000B60311241FBECFEFD8E0DEBFCDBFC6
:1000D00011E0A0E0B1E0EAE7F8E002C005900D927F
:1000E000A030B107D9F721E0A0E0B1E001C01D9236
:1000F000AB33B207E1F710E0C2E6D0E004C02197CD
:10010000FE010E943504C136D107C9F70E94F402EE
:100110000C943B040C940000833081F028F481306F
:1001200099F08230A9F008958730A9F08830C9F09D
:100130008430B1F4809180008F7D03C08091800075
:100140008F7780938000089584B58F7784BD08955C
:1001500084B58F7DFBCF8091B0008F778093B00006
:1001600008958091B0008F7DF9CF1F93CF93DF93D7
:10017000282F30E0F901E255FF4F8491F901E6564E
:10018000FF4FD491F901EA57FF4FC491CC23A9F056
:10019000162F81110E948C00EC2FF0E0EE0FFF1F54
:1001A000EE58FF4FA591B4918FB7F894EC911111CF
:1001B00008C0D095DE23DC938FBFDF91CF911F91D4
:1001C0000895DE2BF8CFCF93DF9390E0FC01E65645
:1001D000FF4F24918A579F4FFC0184918823D1F0CF
:1001E00090E0880F991FFC01E859FF4FA591B49149
:1001F000FC01EE58FF4FC591D49161110EC09FB71D
:10020000F8948C91E22FE0958E238C932881E22341
:10021000E8839FBFDF91CF9108958FB7F894EC9159
:10022000E22BEC938FBFF6CF8F929F92AF92BF924B
:10023000FF920F931F93CF93DF93FC01F0808BE02D
:100240008F1508F44AC0828108E512E0081B1109E5
:1002500087FD1395000F111F000F111F8181C8E842
:10026000D0E0C81BD10987FDD395CC0FDD1FCC0F83
:10027000DD1F4E010D2E000CAA08BB089801012EAF
:10028000000C440B550B281939094A095B09DB019D
:100290000E94F00324EB30E040E050E00E94C603EF
:1002A000820E931EA41EB51E8C169D062CF0E8012E
:1002B000801691060CF4E4012297CC0FDD1F2FB7B6
:1002C000F8948F2D90E0FC01EE0FFF1FE80FF91F4F
:1002D000EE5FFE4FD283C1832FBFDF91CF911F917D
:1002E0000F91FF90BF90AF909F908F9008951F93B4
:1002F000CF93DF93EC01162F88818C3008F04EC02D
:1003000061E0812F0E94E3008881282F30E0F9010D
:10031000EE0FFF1FE20FF31FEE5FFE4F1F736081B2
:10032000607C612B608319821A822CE0622F0E940C
:100330002904829FB001112430E020E0AB01420F7C
:10034000531FFA01EE0FFF1FE40FF51FEE5FFE4F84
:10035000908196FD16C02F5F3F4F2C30310571F70D
:1003600081110FC01092800082E080938100109272
:10037000850010928400B19A80916F008260809312
:100380006F00E8818E2F90E0FC01EE0FFF1FE80F59
:10039000F91FEE5FFE4F8081806480838881DF914A
:1003A000CF911F9108951F920F920FB60F921124B3
:1003B0002F933F938F939F93AF93BF938091370178
:1003C00090913801A0913901B0913A0130913601F4
:1003D00023E0230F2D3758F50196A11DB11D209361
:1003E00036018093370190933801A0933901B0937F
:1003F0003A018091320190913301A0913401B09182
:1004000035010196A11DB11D8093320190933301F6
:10041000A0933401B0933501BF91AF919F918F911B
:100420003F912F910F900FBE0F901F90189526E8C7
:10043000230F0296A11DB11DD2CF1F920F920FB6AE
:100440000F9211242F933F934F935F936F937F935A
:100450008F939F93AF93BF93CF93DF93EF93FF93CC
:1004600080910001C0910101D0E087FF24C010926B
:10047000850010928400809100018F5F80930001BD
:1004800080910001082E000C990B8C179D0724F415
:10049000809100018C30C4F180918400909185009E
:1004A000049680349C4908F47AC08091840090912D
:1004B0008500049676C080910001082E000C990BEF
:1004C0008C179D07C4F6E09100018E2FEE0F990B5B
:1004D000FC01EE0FFF1FE80FF91FEE5FFE4F80815A
:1004E00086FFC9CFE09100018E2FEE0F990BFC0122
:1004F000EE0FFF1FE80FF91FEE5FFE4F808160E0F7
:100500008F730E94B500B7CF209184003091850091
:10051000E09100018E2FEE0F990BFC01EE0FFF1FF3
:10052000E80FF91FEE5FFE4F81819281820F931FCA
:100530009093890080938800E09100018E2FEE0F48
:10054000990BFC01EE0FFF1FE80FF91FEE5FFE4F46
:10055000808186FF11C0E09100018E2FEE0F990B74
:10056000FC01EE0FFF1FE80FF91FEE5FFE4F8081C9
:1005700061E08F730E94B500FF91EF91DF91CF9101
:10058000BF91AF919F918F917F916F915F914F91AB
:100590003F912F910F900FBE0F901F90189580E400
:1005A0009CE990938900809388008FEF80930001ED
:1005B000E3CFFC01909101019C3098F481E0890F18
:1005C000809301019083892F90E0FC01EE0FFF1FC3
:1005D000E80FF91FEE5FFE4F88EB9BE0928381836B
:1005E00008958FEF80830895789484B5826084BDE8
:1005F00084B5816084BD85B5826085BD85B5816027
:1006000085BD80916E00816080936E0010928100A4
:10061000809181008260809381008091810081605F
:100620008093810080918000816080938000809120
:10063000B10084608093B1008091B00081608093AC
:10064000B00080917A00846080937A0080917A0073
:10065000826080937A0080917A00816080937A0032
:1006600080917A00806880937A001092C10060E0E7
:1006700082E00E94E30061E08AE00E94E30069E01A
:1006800070E08FE291E00E94770168E070E08CE218
:1006900091E00E94770167E070E089E291E00E94BA
:1006A000770166E070E086E291E00E947701C0EB9E
:1006B000D0E00CE910E098E8E92E90E0F92E20E077
:1006C000C22E20E0D22EFE018491F801A490F70101
:1006D000B490BB2089F181110E948C00EB2DF0E0D9
:1006E000EE0FFF1FE458FF4FA591B4918C91A82203
:1006F00019F170E060E08FE291E00E94140170E077
:1007000060E08CE291E00E94140170E060E089E218
:1007100091E00E94140170E060E086E291E00E94A6
:10072000140161E08AE00E94B500C114D10409F40B
:10073000CACF0E940000C7CF6AE570E08FE291E067
:100740000E9414016AE570E08CE291E00E941401BD
:100750006AE570E089E291E00E9414016AE570E0C8
:1007600086E291E00E94140160E0DCCF86E291E035
:100770000E94D90289E291E00E94D9028CE291E0C4
:100780000E94D9028FE291E00C94D902052E97FBCA
:100790001EF400940E94DD0357FD07D00E94F80369
:1007A00007FC03D04EF40C94DD0350954095309532
:1007B00021953F4F4F4F5F4F0895909580957095CD
:1007C00061957F4F8F4F9F4F08950E941A04A59FF8
:1007D000900DB49F900DA49F800D911D112408953C
:1007E000B7FF0C94E5030E94E503821B930B089569
:1007F000A1E21A2EAA1BBB1BFD010DC0AA1FBB1F25
:10080000EE1FFF1FA217B307E407F50720F0A21B96
:10081000B30BE40BF50B661F771F881F991F1A9403
:1008200069F760957095809590959B01AC01BD012D
:10083000CF010895A29FB001B39FC001A39F700D87
:10084000811D1124911DB29F700D811D1124911DD8
:100850000895991B79E004C0991F961708F0961B1C
:10086000881F7A95C9F780950895EE0FFF1F0590B0
:0A087000F491E02D0994F894FFCFF5
:107E0000112484B714BE81FFF0D085E080938100F7
:107E100082E08093C00088E18093C10086E0809377
:107E2000C20080E18093C4008EE0C9D0259A86E02C
:107E300020E33CEF91E0309385002093840096BBD3
:107E4000B09BFECF1D9AA8958150A9F7CC24DD24C4
:107E500088248394B5E0AB2EA1E19A2EF3E0BF2EE7
:107E6000A2D0813461F49FD0082FAFD0023811F036
:107E7000013811F484E001C083E08DD089C08234E0
:107E800011F484E103C0853419F485E0A6D080C0E4
:107E9000853579F488D0E82EFF2485D0082F10E0AE
:107EA000102F00270E291F29000F111F8ED06801E7
:107EB0006FC0863521F484E090D080E0DECF843638
:107EC00009F040C070D06FD0082F6DD080E0C81688
:107ED00080E7D80618F4F601B7BEE895C0E0D1E017
:107EE00062D089930C17E1F7F0E0CF16F0E7DF06D8
:107EF00018F0F601B7BEE89568D007B600FCFDCFD4
:107F0000A601A0E0B1E02C9130E011968C91119780
:107F100090E0982F8827822B932B1296FA010C0160
:107F200087BEE89511244E5F5F4FF1E0A038BF0790
:107F300051F7F601A7BEE89507B600FCFDCF97BE46
:107F4000E89526C08437B1F42ED02DD0F82E2BD052
:107F50003CD0F601EF2C8F010F5F1F4F84911BD097
:107F6000EA94F801C1F70894C11CD11CFA94CF0C13
:107F7000D11C0EC0853739F428D08EE10CD085E9AC
:107F80000AD08FE07ACF813511F488E018D01DD067
:107F900080E101D065CF982F8091C00085FFFCCF94
:107FA0009093C60008958091C00087FFFCCF809118
:107FB000C00084FD01C0A8958091C6000895E0E648
:107FC000F0E098E1908380830895EDDF803219F02E
:107FD00088E0F5DFFFCF84E1DECF1F93182FE3DFCA
:107FE0001150E9F7F2DF1F91089580E0E8DFEE27F6
:047FF000FF270994CA
:027FFE00040479
:00000001FF
